var storjtoken_sol_safemathContract = web3.eth.contract([]);
var storjtoken_sol_safemath = storjtoken_sol_safemathContract.new(
   {
     from: web3.eth.accounts[0], 
     data: '0x60606040523415600b57fe5b5b60338060196000396000f30060606040525bfe00a165627a7a72305820d64b41a3f80b60afcfee9f6cb459a31ec91fd92e20d43c3569feca91ad6ce4790029', 
     gas: '4700000'
   }, function (e, contract){
    console.log(e, contract);
    if (typeof contract.address !== 'undefined') {
         console.log('Contract mined! address: ' + contract.address + ' transactionHash: ' + contract.transactionHash);
    }
 })

 0x34e18ae04f3f5d10d05322d26eaff1e7361712dc

 var storjtoken_sol_safemathlibContract = web3.eth.contract([{"constant":false,"inputs":[{"name":"a","type":"uint256"},{"name":"b","type":"uint256"}],"name":"times","outputs":[{"name":"","type":"uint256"}],"payable":false,"type":"function"},{"constant":false,"inputs":[{"name":"a","type":"uint256"},{"name":"b","type":"uint256"}],"name":"plus","outputs":[{"name":"","type":"uint256"}],"payable":false,"type":"function"},{"constant":false,"inputs":[{"name":"a","type":"uint256"},{"name":"b","type":"uint256"}],"name":"minus","outputs":[{"name":"","type":"uint256"}],"payable":false,"type":"function"}]);
var storjtoken_sol_safemathlib = storjtoken_sol_safemathlibContract.new(
   {
     from: web3.eth.accounts[0], 
     data: '0x6060604052341561000c57fe5b5b6101a88061001c6000396000f30060606040526000357c0100000000000000000000000000000000000000000000000000000000900463ffffffff1680631d3b9edf1461005157806366098d4f14610086578063f4f3bdc1146100bb575bfe5b61007060048080359060200190919080359060200190919050506100f0565b6040518082815260200191505060405180910390f35b6100a56004808035906020019091908035906020019091905050610125565b6040518082815260200191505060405180910390f35b6100da6004808035906020019091908035906020019091905050610151565b6040518082815260200191505060405180910390f35b60006000828402905061011a6000851480610115575083858381151561011257fe5b04145b61016b565b8091505b5092915050565b6000600082840190506101468482101580156101415750838210155b61016b565b8091505b5092915050565b600061015f8383111561016b565b81830390505b92915050565b8015156101785760006000fd5b5b505600a165627a7a72305820ccd36f2d9601178b58eb330fed03e4a3f7a24198cdf87f233e97693a166b53c70029', 
     gas: '4700000'
   }, function (e, contract){
    console.log(e, contract);
    if (typeof contract.address !== 'undefined') {
         console.log('Contract mined! address: ' + contract.address + ' transactionHash: ' + contract.transactionHash);
    }
 })

 0xa76f8b612de46924e81821c7bc39793b2b657117


var _name = /* var of type string here */ ;
var _symbol = /* var of type string here */ ;
var _totalSupply = /* var of type uint256 here */ ;
var _decimalUnits = /* var of type uint8 here */ ;
var _migrationMaster = /* var of type address here */ ;
var storjtoken_sol_storjtokenContract = web3.eth.contract([{"constant":true,"inputs":[],"name":"name","outputs":[{"name":"","type":"string"}],"payable":false,"type":"function"},{"constant":false,"inputs":[{"name":"_spender","type":"address"},{"name":"_value","type":"uint256"}],"name":"approve","outputs":[{"name":"success","type":"bool"}],"payable":false,"type":"function"},{"constant":true,"inputs":[],"name":"totalSupply","outputs":[{"name":"","type":"uint256"}],"payable":false,"type":"function"},{"constant":false,"inputs":[{"name":"_from","type":"address"},{"name":"_to","type":"address"},{"name":"_value","type":"uint256"}],"name":"transferFrom","outputs":[{"name":"success","type":"bool"}],"payable":false,"type":"function"},{"constant":true,"inputs":[],"name":"decimals","outputs":[{"name":"","type":"uint8"}],"payable":false,"type":"function"},{"constant":false,"inputs":[],"name":"burn","outputs":[],"payable":false,"type":"function"},{"constant":true,"inputs":[{"name":"_owner","type":"address"}],"name":"balanceOf","outputs":[{"name":"balance","type":"uint256"}],"payable":false,"type":"function"},{"constant":true,"inputs":[],"name":"symbol","outputs":[{"name":"","type":"string"}],"payable":false,"type":"function"},{"constant":false,"inputs":[{"name":"_to","type":"address"},{"name":"_value","type":"uint256"}],"name":"transfer","outputs":[{"name":"success","type":"bool"}],"payable":false,"type":"function"},{"constant":true,"inputs":[{"name":"_owner","type":"address"},{"name":"_spender","type":"address"}],"name":"allowance","outputs":[{"name":"remaining","type":"uint256"}],"payable":false,"type":"function"},{"inputs":[{"name":"_name","type":"string"},{"name":"_symbol","type":"string"},{"name":"_totalSupply","type":"uint256"},{"name":"_decimalUnits","type":"uint8"},{"name":"_migrationMaster","type":"address"}],"payable":false,"type":"constructor"},{"anonymous":false,"inputs":[{"indexed":true,"name":"from","type":"address"},{"indexed":true,"name":"to","type":"address"},{"indexed":false,"name":"value","type":"uint256"}],"name":"Transfer","type":"event"},{"anonymous":false,"inputs":[{"indexed":true,"name":"owner","type":"address"},{"indexed":true,"name":"spender","type":"address"},{"indexed":false,"name":"value","type":"uint256"}],"name":"Approval","type":"event"}]);
var storjtoken_sol_storjtoken = storjtoken_sol_storjtokenContract.new(
   "Storj Token",
   "STORJ",
   50000000000000000,
   8,
   "0x23e44f57f1ba0a0dc1cbda70978caace94c84f0a",
   {
     from: web3.eth.accounts[0], 
     data: '0x6060604052341561000c57fe5b604051610d75380380610d75833981016040528080518201919060200180518201919060200180519060200190919080519060200190919080519060200190919050505b82600160008373ffffffffffffffffffffffffffffffffffffffff1673ffffffffffffffffffffffffffffffffffffffff1681526020019081526020016000208190555084600390805190602001906100aa9291906100ef565b5083600490805190602001906100c19291906100ef565b508260058190555081600660006101000a81548160ff021916908360ff1602179055505b5050505050610194565b828054600181600116156101000203166002900490600052602060002090601f016020900481019282601f1061013057805160ff191683800117855561015e565b8280016001018555821561015e579182015b8281111561015d578251825591602001919060010190610142565b5b50905061016b919061016f565b5090565b61019191905b8082111561018d576000816000905550600101610175565b5090565b90565b610bd2806101a36000396000f300606060405236156100a2576000357c0100000000000000000000000000000000000000000000000000000000900463ffffffff16806306fdde03146100a4578063095ea7b31461013d57806318160ddd1461019457806323b872dd146101ba578063313ce5671461023057806344df8e701461025c57806370a082311461026e57806395d89b41146102b8578063a9059cbb14610351578063dd62ed3e146103a8575bfe5b34156100ac57fe5b6100b4610411565b6040518080602001828103825283818151815260200191508051906020019080838360008314610103575b805182526020831115610103576020820191506020810190506020830392506100df565b505050905090810190601f16801561012f5780820380516001836020036101000a031916815260200191505b509250505060405180910390f35b341561014557fe5b61017a600480803573ffffffffffffffffffffffffffffffffffffffff169060200190919080359060200190919050506104af565b604051808215151515815260200191505060405180910390f35b341561019c57fe5b6101a46105a2565b6040518082815260200191505060405180910390f35b34156101c257fe5b610216600480803573ffffffffffffffffffffffffffffffffffffffff1690602001909190803573ffffffffffffffffffffffffffffffffffffffff169060200190919080359060200190919050506105a8565b604051808215151515815260200191505060405180910390f35b341561023857fe5b61024061083f565b604051808260ff1660ff16815260200191505060405180910390f35b341561026457fe5b61026c610852565b005b341561027657fe5b6102a2600480803573ffffffffffffffffffffffffffffffffffffffff16906020019091905050610855565b6040518082815260200191505060405180910390f35b34156102c057fe5b6102c861089f565b6040518080602001828103825283818151815260200191508051906020019080838360008314610317575b805182526020831115610317576020820191506020810190506020830392506102f3565b505050905090810190601f1680156103435780820380516001836020036101000a031916815260200191505b509250505060405180910390f35b341561035957fe5b61038e600480803573ffffffffffffffffffffffffffffffffffffffff1690602001909190803590602001909190505061093d565b604051808215151515815260200191505060405180910390f35b34156103b057fe5b6103fb600480803573ffffffffffffffffffffffffffffffffffffffff1690602001909190803573ffffffffffffffffffffffffffffffffffffffff16906020019091905050610ac7565b6040518082815260200191505060405180910390f35b60038054600181600116156101000203166002900480601f0160208091040260200160405190810160405280929190818152602001828054600181600116156101000203166002900480156104a75780601f1061047c576101008083540402835291602001916104a7565b820191906000526020600020905b81548152906001019060200180831161048a57829003601f168201915b505050505081565b600081600260003373ffffffffffffffffffffffffffffffffffffffff1673ffffffffffffffffffffffffffffffffffffffff16815260200190815260200160002060008573ffffffffffffffffffffffffffffffffffffffff1673ffffffffffffffffffffffffffffffffffffffff168152602001908152602001600020819055508273ffffffffffffffffffffffffffffffffffffffff163373ffffffffffffffffffffffffffffffffffffffff167f8c5be1e5ebec7d5bd14f71427d1e84f3dd0314c0f7b2291e5b200ac8c7c3b925846040518082815260200191505060405180910390a3600190505b92915050565b60055481565b60006000600260008673ffffffffffffffffffffffffffffffffffffffff1673ffffffffffffffffffffffffffffffffffffffff16815260200190815260200160002060003373ffffffffffffffffffffffffffffffffffffffff1673ffffffffffffffffffffffffffffffffffffffff168152602001908152602001600020549050610674600160008673ffffffffffffffffffffffffffffffffffffffff1673ffffffffffffffffffffffffffffffffffffffff1681526020019081526020016000205484610b4f565b600160008673ffffffffffffffffffffffffffffffffffffffff1673ffffffffffffffffffffffffffffffffffffffff16815260200190815260200160002081905550610700600160008773ffffffffffffffffffffffffffffffffffffffff1673ffffffffffffffffffffffffffffffffffffffff1681526020019081526020016000205484610b7b565b600160008773ffffffffffffffffffffffffffffffffffffffff1673ffffffffffffffffffffffffffffffffffffffff1681526020019081526020016000208190555061074d8184610b7b565b600260008773ffffffffffffffffffffffffffffffffffffffff1673ffffffffffffffffffffffffffffffffffffffff16815260200190815260200160002060003373ffffffffffffffffffffffffffffffffffffffff1673ffffffffffffffffffffffffffffffffffffffff168152602001908152602001600020819055508373ffffffffffffffffffffffffffffffffffffffff168573ffffffffffffffffffffffffffffffffffffffff167fddf252ad1be2c89b69c2b068fc378daa952ba7f163c4a11628f55a4df523b3ef856040518082815260200191505060405180910390a3600191505b509392505050565b600660009054906101000a900460ff1681565b5b565b6000600160008373ffffffffffffffffffffffffffffffffffffffff1673ffffffffffffffffffffffffffffffffffffffff1681526020019081526020016000205490505b919050565b60048054600181600116156101000203166002900480601f0160208091040260200160405190810160405280929190818152602001828054600181600116156101000203166002900480156109355780601f1061090a57610100808354040283529160200191610935565b820191906000526020600020905b81548152906001019060200180831161091857829003601f168201915b505050505081565b6000610988600160003373ffffffffffffffffffffffffffffffffffffffff1673ffffffffffffffffffffffffffffffffffffffff1681526020019081526020016000205483610b7b565b600160003373ffffffffffffffffffffffffffffffffffffffff1673ffffffffffffffffffffffffffffffffffffffff16815260200190815260200160002081905550610a14600160008573ffffffffffffffffffffffffffffffffffffffff1673ffffffffffffffffffffffffffffffffffffffff1681526020019081526020016000205483610b4f565b600160008573ffffffffffffffffffffffffffffffffffffffff1673ffffffffffffffffffffffffffffffffffffffff168152602001908152602001600020819055508273ffffffffffffffffffffffffffffffffffffffff163373ffffffffffffffffffffffffffffffffffffffff167fddf252ad1be2c89b69c2b068fc378daa952ba7f163c4a11628f55a4df523b3ef846040518082815260200191505060405180910390a3600190505b92915050565b6000600260008473ffffffffffffffffffffffffffffffffffffffff1673ffffffffffffffffffffffffffffffffffffffff16815260200190815260200160002060008373ffffffffffffffffffffffffffffffffffffffff1673ffffffffffffffffffffffffffffffffffffffff1681526020019081526020016000205490505b92915050565b600060008284019050610b70848210158015610b6b5750838210155b610b95565b8091505b5092915050565b6000610b8983831115610b95565b81830390505b92915050565b801515610ba25760006000fd5b5b505600a165627a7a723058203a61459d4fa4985532789cb3b95bcef0a69e30bcec24b1c512d286f6c48f2c0b0029', 
     gas: '4700000'
   }, function (e, contract){
    console.log(e, contract);
    if (typeof contract.address !== 'undefined') {
         console.log('Contract mined! address: ' + contract.address + ' transactionHash: ' + contract.transactionHash);
    }
 })

0xf834a98ef136c912a38b48559cc8bbba7869d0c3
0x82fedfa08aa4a091296488669c7d706b330720efa744549117c59bdf5a132a7b
 ----

 0x2ea0fe9b0b139fe7ad252ce01961e14dd2b47a95
 0xb7b012ba7256ce3df96dfd387cec533e93c5a125
 
 0x689956564d6b1bacfc5f656adbd533a9a64c23d0
 0xe1d310efa35aaddb8fdcde6b032a81e7b0848a2b


 var _owners = /* var of type address[] here */ ;
var _required = /* var of type uint256 here */ ;
var untitled_multisigwalletContract = web3.eth.contract([{"constant":true,"inputs":[{"name":"","type":"uint256"}],"name":"owners","outputs":[{"name":"","type":"address"}],"payable":false,"type":"function"},{"constant":true,"inputs":[{"name":"","type":"bytes32"},{"name":"","type":"address"}],"name":"confirmations","outputs":[{"name":"","type":"bool"}],"payable":false,"type":"function"},{"constant":false,"inputs":[{"name":"destination","type":"address"},{"name":"value","type":"uint256"},{"name":"data","type":"bytes"},{"name":"nonce","type":"uint256"}],"name":"submitTransaction","outputs":[{"name":"transactionHash","type":"bytes32"}],"payable":false,"type":"function"},{"constant":false,"inputs":[{"name":"owner","type":"address"}],"name":"removeOwner","outputs":[],"payable":false,"type":"function"},{"constant":true,"inputs":[{"name":"","type":"address"}],"name":"isOwner","outputs":[{"name":"","type":"bool"}],"payable":false,"type":"function"},{"constant":true,"inputs":[{"name":"transactionHash","type":"bytes32"}],"name":"confirmationCount","outputs":[{"name":"count","type":"uint256"}],"payable":false,"type":"function"},{"constant":false,"inputs":[{"name":"_required","type":"uint256"}],"name":"updateRequired","outputs":[],"payable":false,"type":"function"},{"constant":true,"inputs":[{"name":"","type":"bytes32"}],"name":"transactions","outputs":[{"name":"destination","type":"address"},{"name":"value","type":"uint256"},{"name":"data","type":"bytes"},{"name":"nonce","type":"uint256"},{"name":"executed","type":"bool"}],"payable":false,"type":"function"},{"constant":false,"inputs":[{"name":"owner","type":"address"}],"name":"addOwner","outputs":[],"payable":false,"type":"function"},{"constant":false,"inputs":[{"name":"transactionHash","type":"bytes32"}],"name":"confirmTransaction","outputs":[],"payable":false,"type":"function"},{"constant":true,"inputs":[],"name":"required","outputs":[{"name":"","type":"uint256"}],"payable":false,"type":"function"},{"constant":false,"inputs":[{"name":"transactionHash","type":"bytes32"}],"name":"revokeConfirmation","outputs":[],"payable":false,"type":"function"},{"inputs":[{"name":"_owners","type":"address[]"},{"name":"_required","type":"uint256"}],"payable":false,"type":"constructor"},{"payable":true,"type":"fallback"},{"anonymous":false,"inputs":[{"indexed":false,"name":"sender","type":"address"},{"indexed":false,"name":"transactionHash","type":"bytes32"}],"name":"Confirmation","type":"event"},{"anonymous":false,"inputs":[{"indexed":false,"name":"sender","type":"address"},{"indexed":false,"name":"transactionHash","type":"bytes32"}],"name":"Revocation","type":"event"},{"anonymous":false,"inputs":[{"indexed":false,"name":"sender","type":"address"},{"indexed":false,"name":"transactionHash","type":"bytes32"}],"name":"Submission","type":"event"},{"anonymous":false,"inputs":[{"indexed":false,"name":"sender","type":"address"},{"indexed":false,"name":"transactionHash","type":"bytes32"}],"name":"Execution","type":"event"},{"anonymous":false,"inputs":[{"indexed":false,"name":"sender","type":"address"},{"indexed":false,"name":"value","type":"uint256"}],"name":"Deposit","type":"event"},{"anonymous":false,"inputs":[{"indexed":false,"name":"owner","type":"address"}],"name":"OwnerAddition","type":"event"},{"anonymous":false,"inputs":[{"indexed":false,"name":"owner","type":"address"}],"name":"OwnerRemoval","type":"event"},{"anonymous":false,"inputs":[{"indexed":false,"name":"required","type":"uint256"}],"name":"RequiredUpdate","type":"event"}]);
var untitled_multisigwallet = untitled_multisigwalletContract.new(
   ["0x76f2b06d7d147366252b21b8d5a97e4a284491e1","0x51bd54561e37822548e58345856c2caef3058544"],
   2,
   {
     from: web3.eth.accounts[0], 
     data: '0x606060405234156200000d57fe5b6040516200176a3803806200176a833981016040528080518201919060200180519060200190919050505b6000828281518111156200004c5760006000fd5b600092505b8451831015620000da5760016002600087868151811015156200007057fe5b9060200190602002015173ffffffffffffffffffffffffffffffffffffffff1673ffffffffffffffffffffffffffffffffffffffff16815260200190815260200160002060006101000a81548160ff0219169083151502179055505b828060010193505062000051565b836004819055508460039080519060200190620000f992919062000107565b505b5b5050505050620001dc565b82805482825590600052602060002090810192821562000183579160200282015b82811115620001825782518260006101000a81548173ffffffffffffffffffffffffffffffffffffffff021916908373ffffffffffffffffffffffffffffffffffffffff1602179055509160200191906001019062000128565b5b50905062000192919062000196565b5090565b620001d991905b80821115620001d557600081816101000a81549073ffffffffffffffffffffffffffffffffffffffff0219169055506001016200019d565b5090565b90565b61157e80620001ec6000396000f300606060405236156100b8576000357c0100000000000000000000000000000000000000000000000000000000900463ffffffff168063025e7c27146101365780630c4ecab4146101965780630d59b564146101f1578063173825d9146102695780632f54bf6e1461029f57806359bf77df146102ed578063607fa5a414610325578063642f2eaf146103455780637065cb481461044b57806379716e4314610481578063dc8452cd146104a5578063f3fc536d146104cb575b6101345b6000341115610131577fe1fffcc4923d04b559f4d29a8bfc6cda04eb5b0d3c460751c2402c5c5cc9109c3334604051808373ffffffffffffffffffffffffffffffffffffffff1673ffffffffffffffffffffffffffffffffffffffff1681526020018281526020019250505060405180910390a15b5b565b005b341561013e57fe5b61015460048080359060200190919050506104ef565b604051808273ffffffffffffffffffffffffffffffffffffffff1673ffffffffffffffffffffffffffffffffffffffff16815260200191505060405180910390f35b341561019e57fe5b6101d760048080356000191690602001909190803573ffffffffffffffffffffffffffffffffffffffff1690602001909190505061052f565b604051808215151515815260200191505060405180910390f35b34156101f957fe5b61024b600480803573ffffffffffffffffffffffffffffffffffffffff16906020019091908035906020019091908035906020019082018035906020019190919290803590602001909190505061055e565b60405180826000191660001916815260200191505060405180910390f35b341561027157fe5b61029d600480803573ffffffffffffffffffffffffffffffffffffffff16906020019091905050610886565b005b34156102a757fe5b6102d3600480803573ffffffffffffffffffffffffffffffffffffffff16906020019091905050610b94565b604051808215151515815260200191505060405180910390f35b34156102f557fe5b61030f600480803560001916906020019091905050610bb4565b6040518082815260200191505060405180910390f35b341561032d57fe5b6103436004808035906020019091905050610c8c565b005b341561034d57fe5b610367600480803560001916906020019091905050610da4565b604051808673ffffffffffffffffffffffffffffffffffffffff1673ffffffffffffffffffffffffffffffffffffffff16815260200185815260200180602001848152602001831515151581526020018281038252858181546001816001161561010002031660029004815260200191508054600181600116156101000203166002900480156104385780601f1061040d57610100808354040283529160200191610438565b820191906000526020600020905b81548152906001019060200180831161041b57829003601f168201915b5050965050505050505060405180910390f35b341561045357fe5b61047f600480803573ffffffffffffffffffffffffffffffffffffffff16906020019091905050610e06565b005b341561048957fe5b6104a3600480803560001916906020019091905050610fc0565b005b34156104ad57fe5b6104b56112d1565b6040518082815260200191505060405180910390f35b34156104d357fe5b6104ed6004808035600019169060200190919050506112d7565b005b6003818154811015156104fe57fe5b906000526020600020900160005b915054906101000a900473ffffffffffffffffffffffffffffffffffffffff1681565b60016020528160005260406000206020528060005260406000206000915091509054906101000a900460ff1681565b600033600260008273ffffffffffffffffffffffffffffffffffffffff1673ffffffffffffffffffffffffffffffffffffffff16815260200190815260200160002060009054906101000a900460ff1615156105ba5760006000fd5b8686868686604051808673ffffffffffffffffffffffffffffffffffffffff1673ffffffffffffffffffffffffffffffffffffffff166c01000000000000000000000000028152601401858152602001848480828437820191505082815260200195505050505050604051809103902060006000826000191660001916815260200190815260200160002060040160009054906101000a900460ff16156106615760006000fd5b8787878787604051808673ffffffffffffffffffffffffffffffffffffffff1673ffffffffffffffffffffffffffffffffffffffff166c010000000000000000000000000281526014018581526020018484808284378201915050828152602001955050505050506040518091039020925060a0604051908101604052808973ffffffffffffffffffffffffffffffffffffffff16815260200188815260200187878080601f01602080910402602001604051908101604052809392919081815260200183838082843782019150505050505081526020018581526020016000151581525060006000856000191660001916815260200190815260200160002060008201518160000160006101000a81548173ffffffffffffffffffffffffffffffffffffffff021916908373ffffffffffffffffffffffffffffffffffffffff1602179055506020820151816001015560408201518160020190805190602001906107ce929190611455565b506060820151816003015560808201518160040160006101000a81548160ff0219169083151502179055509050507fc67f8dbb6106393f7d865c04c110bd8a2e82e0e6f69f42e6a7c584827c37fafa3384604051808373ffffffffffffffffffffffffffffffffffffffff1673ffffffffffffffffffffffffffffffffffffffff16815260200182600019166000191681526020019250505060405180910390a161087883610fc0565b5b5b505b5095945050505050565b60003073ffffffffffffffffffffffffffffffffffffffff163373ffffffffffffffffffffffffffffffffffffffff161415156108c35760006000fd5b81600260008273ffffffffffffffffffffffffffffffffffffffff1673ffffffffffffffffffffffffffffffffffffffff16815260200190815260200160002060009054906101000a900460ff16151561091d5760006000fd5b600091505b600160038054905003821015610af4578273ffffffffffffffffffffffffffffffffffffffff1660038381548110151561095857fe5b906000526020600020900160005b9054906101000a900473ffffffffffffffffffffffffffffffffffffffff1673ffffffffffffffffffffffffffffffffffffffff1614156109fa576000600260008573ffffffffffffffffffffffffffffffffffffffff1673ffffffffffffffffffffffffffffffffffffffff16815260200190815260200160002060006101000a81548160ff0219169083151502179055505b600260008473ffffffffffffffffffffffffffffffffffffffff1673ffffffffffffffffffffffffffffffffffffffff16815260200190815260200160002060009054906101000a900460ff161515610ae657600360018301815481101515610a5f57fe5b906000526020600020900160005b9054906101000a900473ffffffffffffffffffffffffffffffffffffffff16600383815481101515610a9b57fe5b906000526020600020900160005b6101000a81548173ffffffffffffffffffffffffffffffffffffffff021916908373ffffffffffffffffffffffffffffffffffffffff1602179055505b5b8180600101925050610922565b6001600381818054905003915081610b0c91906114d5565b506003805490506004541115610b29576003805490506004819055505b7f8001553a916ef2f495d26a907cc54d96ed840d7bda71e73194bf5a9df7a76b9083604051808273ffffffffffffffffffffffffffffffffffffffff1673ffffffffffffffffffffffffffffffffffffffff16815260200191505060405180910390a15b5b505b5050565b60026020528060005260406000206000915054906101000a900460ff1681565b60006000600090505b600380549050811015610c85576001600084600019166000191681526020019081526020016000206000600383815481101515610bf657fe5b906000526020600020900160005b9054906101000a900473ffffffffffffffffffffffffffffffffffffffff1673ffffffffffffffffffffffffffffffffffffffff1673ffffffffffffffffffffffffffffffffffffffff16815260200190815260200160002060009054906101000a900460ff1615610c77576001820191505b5b8080600101915050610bbd565b5b50919050565b3073ffffffffffffffffffffffffffffffffffffffff163373ffffffffffffffffffffffffffffffffffffffff16141515610cc75760006000fd5b6003805480602002602001604051908101604052809291908181526020018280548015610d4957602002820191906000526020600020905b8160009054906101000a900473ffffffffffffffffffffffffffffffffffffffff1673ffffffffffffffffffffffffffffffffffffffff1681526020019060010190808311610cff575b5050505050818151811115610d5e5760006000fd5b826004819055507f0cfd262243fb0dd33ba2604015772142a737b088fb078ec5aa18bea2c58c29a2836040518082815260200191505060405180910390a15b5b50505b50565b60006020528060005260406000206000915090508060000160009054906101000a900473ffffffffffffffffffffffffffffffffffffffff169080600101549080600201908060030154908060040160009054906101000a900460ff16905085565b3073ffffffffffffffffffffffffffffffffffffffff163373ffffffffffffffffffffffffffffffffffffffff16141515610e415760006000fd5b80600260008273ffffffffffffffffffffffffffffffffffffffff1673ffffffffffffffffffffffffffffffffffffffff16815260200190815260200160002060009054906101000a900460ff1615610e9a5760006000fd5b6001600260008473ffffffffffffffffffffffffffffffffffffffff1673ffffffffffffffffffffffffffffffffffffffff16815260200190815260200160002060006101000a81548160ff02191690831515021790555060038054806001018281610f069190611501565b916000526020600020900160005b84909190916101000a81548173ffffffffffffffffffffffffffffffffffffffff021916908373ffffffffffffffffffffffffffffffffffffffff160217905550507ff39e6e1eb0edcf53c221607b54b00cd28f3196fed0a24994dc308b8f611b682d82604051808273ffffffffffffffffffffffffffffffffffffffff1673ffffffffffffffffffffffffffffffffffffffff16815260200191505060405180910390a15b5b505b50565b600033600260008273ffffffffffffffffffffffffffffffffffffffff1673ffffffffffffffffffffffffffffffffffffffff16815260200190815260200160002060009054906101000a900460ff16151561101c5760006000fd5b8260006000826000191660001916815260200190815260200160002060040160009054906101000a900460ff16156110545760006000fd5b600160016000866000191660001916815260200190815260200160002060003373ffffffffffffffffffffffffffffffffffffffff1673ffffffffffffffffffffffffffffffffffffffff16815260200190815260200160002060006101000a81548160ff0219169083151502179055507fe1c52dc63b719ade82e8bea94cc41a0d5d28e4aaf536adb5e9cccc9ff8c1aeda3385604051808373ffffffffffffffffffffffffffffffffffffffff1673ffffffffffffffffffffffffffffffffffffffff16815260200182600019166000191681526020019250505060405180910390a160045461114485610bb4565b1015156112c857600060008560001916600019168152602001908152602001600020925060018360040160006101000a81548160ff0219169083151502179055508260000160009054906101000a900473ffffffffffffffffffffffffffffffffffffffff1673ffffffffffffffffffffffffffffffffffffffff16836001015484600201604051808280546001816001161561010002031660029004801561122e5780601f106112035761010080835404028352916020019161122e565b820191906000526020600020905b81548152906001019060200180831161121157829003601f168201915b505091505060006040518083038185876185025a03f19250505015156112545760006000fd5b7f4a205366a179583dc2a74e5760b468732e5f0d4d280a2174dcaabf8ad57186ea3385604051808373ffffffffffffffffffffffffffffffffffffffff1673ffffffffffffffffffffffffffffffffffffffff16815260200182600019166000191681526020019250505060405180910390a15b5b5b505b505050565b60045481565b33600260008273ffffffffffffffffffffffffffffffffffffffff1673ffffffffffffffffffffffffffffffffffffffff16815260200190815260200160002060009054906101000a900460ff1615156113315760006000fd5b8160006000826000191660001916815260200190815260200160002060040160009054906101000a900460ff16156113695760006000fd5b600060016000856000191660001916815260200190815260200160002060003373ffffffffffffffffffffffffffffffffffffffff1673ffffffffffffffffffffffffffffffffffffffff16815260200190815260200160002060006101000a81548160ff0219169083151502179055507f9aec1a62b961581534d37fd62d35e3648f05a17b1f986eda1d1a9d97b14784063384604051808373ffffffffffffffffffffffffffffffffffffffff1673ffffffffffffffffffffffffffffffffffffffff16815260200182600019166000191681526020019250505060405180910390a15b5b505b5050565b828054600181600116156101000203166002900490600052602060002090601f016020900481019282601f1061149657805160ff19168380011785556114c4565b828001600101855582156114c4579182015b828111156114c35782518255916020019190600101906114a8565b5b5090506114d1919061152d565b5090565b8154818355818115116114fc578183600052602060002091820191016114fb919061152d565b5b505050565b81548183558181151161152857818360005260206000209182019101611527919061152d565b5b505050565b61154f91905b8082111561154b576000816000905550600101611533565b5090565b905600a165627a7a7230582082457f625627c3af498acfe8146eef1cf405b968fdd67fbeb45c2220aa08b9830029', 
     gas: '4700000'
   }, function (e, contract){
    console.log(e, contract);
    if (typeof contract.address !== 'undefined') {
         console.log('Contract mined! address: ' + contract.address + ' transactionHash: ' + contract.transactionHash);
    }
 })

 0x23e44f57f1ba0a0dc1cbda70978caace94c84f0a

 -------

 0xe2df4fa00a5ac51f9bc42756bb1c05c9083cc6ce

 0xa9059cbb00000000000000000000000076f2b06d7d147366252b21b8d5a97e4a284491e100000000000000000000000000000000000000000000000000000000000001a4

 walletContract.submitTransaction("0x2ea0fe9b0b139fe7ad252ce01961e14dd2b47a95", 0, "0xa9059cbb00000000000000000000000076f2b06d7d147366252b21b8d5a97e4a284491e100000000000000000000000000000000000000000000000000000000000001a4", 2, {from:web3.eth.accounts[0], gas:1000000})

 0x5c7e46eaa4f5a49337eff5fd0630cee5c639ed48fb0e4ac738299e26eedb27d4

 0000000000000000000000000000000000000000000000000000000000000001
 0000000000000000000000000000000000000000000000000000000000000000


 0xf9014a01850430e23400832fefd89423e44f57f1ba0a0dc1cbda70978caace94c84f0a80b8e4c6427474000000000000000000000000f834a98ef136c912a38b48559cc8bbba7869d0c3000000000000000000000000000000000000000000000000000000000000000000000000000000000000000000000000000000000000000000000000000000600000000000000000000000000000000000000000000000000000000000000044a9059cbb00000000000000000000000076f2b06d7d147366252b21b8d5a97e4a284491e100000000000000000000000000000000000000000000000000000009c7652400000000000000000000000000000000000000000000000000000000001ba0119171196ec17402ee51d6a8c20cb44e3d1d43fd517c797b437456cf4acc9466a00e182a430b1993f7ad1d1e736e689e39bba7789e2675d7d067c68e70c5da3b13



Costs

per gas: 0.00000002 Ether

====
gas used

submitTransaction:
185979

confirm and transfer token:
1. 101842
2. 86842
3. 86842